:100000000C946A000C9492000C9492000C94920050
:100010000C9492000C9492000C9492000C94920018
:100020000C9492000C9492000C9492000C94F20E9A
:100030000C9492000C9492000C9492000C949200F8
:100040000C9426020C9492000C94D7080C94B108DE
:100050000C9492000C9492000C9492000C949200D8
:100060000C9409090C9492002A032D034403740391
:10007000E103F103160400000000240027002A0019
:1000800000000000250028002B00040404040404E0
:100090000404020202020202030303030303010237
:1000A0000408102040800102040810200102040806
:1000B00010200000000800020100000304070000F7
:1000C00000000000000000000000230026002900BE
:1000D00031122B1211241FBECFEFD8E0DEBFCDBFEF
:1000E00012E0A0E0B1E0E2E2F0E302C005900D9280
:1000F000AE38B107D9F724E0AEE8B2E001C01D92F6
:10010000A938B207E1F710E0C9E6D0E004C02197B2
:10011000FE010E940813C836D107C9F70E94E00FFC
:100120000C9404180C9400003FB7F8948091A80236
:100130009091A902A091AA02B091AB0226B5A89B0A
:1001400005C02F3F19F00196A11DB11D3FBFBA2F69
:10015000A92F982F8827820F911DA11DB11DBC01C9
:10016000CD0142E0660F771F881F991F4A95D1F78E
:100170000895EF92FF920F931F93CF93DF93411552
:10018000510521F1EA017B018C0188819981009759
:1001900011F00E94C115C7010E94F9149983888348
:1001A000D8011696ED91FC911797309729F4179680
:1001B000DC93CE9316970AC082819381009711F049
:1001C000FC01FACFD383C283FD83EC83DF91CF910F
:1001D0001F910F91FF90EF900895CF92DF92EF92D1
:1001E000FF920F931F93CF93DF938C017B016A01E2
:1001F0000E94370AEC01892B39F084E08887C60118
:100200000E94F9149A878987AE01B701C801DF916E
:10021000CF911F910F91FF90EF90DF90CF900C94B2
:10022000B9000E94F414AF92BF92CF92DF92EF9286
:10023000FF920F931F93CF93DF935C018B016901B2
:100240007A010E94370AEC01892B11F086E0888739
:1002500044EA51E06EEA71E0CE010E94ED00A50192
:1002600066EB71E0CE010E94ED00A8016BEB71E03E
:10027000CE010E94ED000E94370A009739F023E07A
:10028000FC012087C186D286E386F486AC016BED43
:1002900071E0CE010E94B900CE01DF91CF911F9194
:1002A0000F91FF90EF90DF90CF90BF90AF900895A7
:1002B00090E0FC01EE54FF4F3491FC01E256FF4FF9
:1002C0002491FC01E657FF4FE491EE2309F43BC073
:1002D000332339F1333091F038F43130A9F0323032
:1002E00001F584B58F7D12C0373091F03830A1F020
:1002F0003430B9F4809180008F7D03C080918000FC
:100300008F77809380000DC084B58F7784BD09C03E
:100310008091B0008F7703C08091B0008F7D809373
:10032000B000F0E0EE0FFF1FE058FF4FA591B49131
:100330008FB7F894EC91611103C020952E2301C072
:100340002E2B2C938FBF0895CF93DF9390E0FC0169
:10035000E256FF4F2491FC01E657FF4F849188231A
:1003600061F190E0880F991FFC01EA58FF4FC59199
:10037000D491FC01E058FF4FA591B491611109C0DF
:100380009FB7F8948881209582238883EC912E234F
:100390000BC0623061F49FB7F8943881822F80954A
:1003A00083238883EC912E2B2C939FBF06C08FB79D
:1003B000F894E8812E2B28838FBFDF91CF91089589
:1003C0008F929F92AF92BF92CF92DF92EF92FF9265
:1003D0006B017C010E9494004B015C01C114D104AB
:1003E000E104F104F1F00E949400DC01CB018819D2
:1003F0009909AA09BB09883E9340A105B10570F38C
:1004000021E0C21AD108E108F10888EE880E83E0E5
:10041000981EA11CB11CC114D104E104F10419F708
:10042000DDCFFF90EF90DF90CF90BF90AF909F9087
:100430008F9008952FB7F8946091A4027091A5024F
:100440008091A6029091A7022FBF08951F920F924C
:100450000FB60F9211242F933F938F939F93AF93D7
:10046000BF938091A4029091A502A091A602B091A1
:10047000A7023091A30223E0230F2D3720F4019629
:10048000A11DB11D05C026E8230F0296A11DB11DB7
:100490002093A3028093A4029093A502A093A602A6
:1004A000B093A7028091A8029091A902A091AA02FC
:1004B000B091AB020196A11DB11D8093A80290934B
:1004C000A902A093AA02B093AB02BF91AF919F91F2
:1004D0008F913F912F910F900FBE0F901F90189505
:1004E0000F931F93CF93DF93EC018881998100973D
:1004F00029F02A813B812617370788F48B016F5F2B
:100500007F4F0E942A14009761F0998388831B8390
:100510000A832C813D81232B11F4FC01108281E0A0
:1005200001C080E0DF91CF911F910F910895EF926C
:10053000FF920F931F93CF93DF93EC017B018A010E
:10054000BA010E9470022881398181110DC02115E4
:10055000310519F0C9010E94C115198218821D8246
:100560001C821B821A8206C01D830C83B701C9013D
:100570000E942515CE01DF91CF911F910F91FF9021
:10058000EF9008954F925F926F927F92EF92FF9259
:100590000F931F93CF93DF93CDB7DEB7A1970FB61D
:1005A000F894DEBF0FBECDBF7C01FA01CB0119A2CA
:1005B000223008F42AE08E010F5D1F4F422E512C8D
:1005C000612C712CBF01A30192010E94D317F90184
:1005D000CA01015011096A3014F4605D01C0695C00
:1005E000D8016C93232B242B252B61F7B801C7016D
:1005F0000E949C08A1960FB6F894DEBF0FBECDBF37
:10060000DF91CF911F910F91FF90EF907F906F90AE
:100610005F904F9008958F929F92AF92BF92CF922A
:10062000DF92EF92FF92CF93DF93009709F43AC1E4
:10063000DC011896EC9118974E2FEE0F550B660BB8
:10064000770B4730510508F02DC14C5C5F4FFA0124
:100650000C94081363EC71E006C019968C91882302
:1006600081F068EC71E087E094E0DF91CF91FF903A
:10067000EF90DF90CF90BF90AF909F908F900C94B1
:100680009C086DEC71E0EFCF1996CD90DC901A9735
:100690000D2C000CEE08FF08F7FE15C06DE287E098
:1006A00094E00E944F08EC0144275527BA014C19E9
:1006B0005D096E097F092AE087E094E00E94C2028A
:1006C0008C0F9D1FF1C02AE0B701A60187E094E0DE
:1006D000DF91CF91FF90EF90DF90CF90BF90AF90E0
:1006E0009F908F900C94C2021996CD90DD90ED9062
:1006F000FC901C9720E030E0A901C701B6010E94E0
:10070000591687FF0AC063ED71E087E094E00E940C
:100710009C08F7FAF094F7F8F094C701B6010E942C
:10072000FB134B015C012AE0AB01BC0187E094E0C4
:100730000E94C20267E272E087E094E00E949C0897
:10074000C501B4010E945E169B01AC01C701B60150
:100750000E9415132CEA35EC47EA56E30E94161363
:100760006B017C01C5E0D0E020E030E040E251E4E4
:10077000C701B6010E94BF164B015C010E94FB132A
:100780006B01E12CF12C2AE0B701A60187E094E08F
:100790000E94C202C701B6010E945E169B01AC0115
:1007A000C501B4010E9415136B017C0120E030E00B
:1007B000A9010E945916882309F474C02197A1F653
:1007C00071C019968D919C911A97DF91CF91FF90EE
:1007D000EF90DF90CF90BF90AF909F908F900C9450
:1007E0004F0F1696CD91DC9117976BE587E094E05B
:1007F0000E944F08019669F48FEF9FEF55C0CE011C
:100800000E940B030196C1F30A80DB81C02D209763
:1008100019F42097A1F708C06CE287E094E00E94E9
:100820004F080196B1F7E8CF6DE52DC01696CD9132
:10083000DC9117976BE787E094E00E944F080196E0
:10084000D9F22097F9F0888199810E944F0F019683
:1008500099F26AE387E094E00E944F08019661F202
:10086000CE010E940B03019639F20A80DB81C02D74
:10087000209739F36CE287E094E00E944F080196DC
:1008800001F7BACF6DE787E094E00E944F0821E0BE
:1008900030E0019611F020E030E088279927821B94
:1008A000930B02C080E090E0DF91CF91FF90EF903A
:1008B000DF90CF90BF90AF909F908F9008950E944F
:1008C0000B0365ED71E08AE693E00C949C08CF92EF
:1008D000DF92EF92FF920F931F93CF93DF936C0100
:1008E0007A018B01C0E0D0E0CE15DF0589F0D80198
:1008F0006D918D01D601ED91FC910190F081E02D7B
:10090000C6010995892B11F47E0102C02196ECCF16
:10091000C701DF91CF911F910F91FF90EF90DF9072
:10092000CF900895FC01918D828D981761F0828D92
:10093000DF01A80FB11D5D968C91928D9F5F9F7313
:10094000928F90E008958FEF9FEF0895FC01918DB5
:10095000828D981731F0828DE80FF11D858D90E022
:1009600008958FEF9FEF0895FC01918D228D892FBF
:1009700090E0805C9F4F821B91098F7399270895A7
:100980008AE693E00E94B40421E0892B09F420E078
:10099000822F0895FC01848DDF01A80FB11DA35A99
:1009A000BF4F2C91848D90E001968F739927848F8F
:1009B000A689B7892C93A089B1898C9180648C9386
:1009C000938D848D981306C00288F389E02D808171
:1009D0008F7D80830895EF92FF920F931F93CF93A3
:1009E000DF93EC0181E0888F9B8D8C8D981305C07F
:1009F000E889F989808185FD24C0F62E0B8D10E0F1
:100A00000F5F1F4F0F731127E02E8C8DE8120CC063
:100A10000FB607FCFACFE889F989808185FFF5CF09
:100A2000CE010E94CA04F1CF8B8DFE01E80FF11DAB
:100A3000E35AFF4FF0820B8FEA89FB898081806245
:100A400007C0EE89FF896083E889F9898081806425
:100A5000808381E090E0DF91CF911F910F91FF9013
:100A6000EF900895CF93DF93EC01888D8823C9F030
:100A7000EA89FB89808185FD05C0A889B9898C91A7
:100A800086FD0FC00FB607FCF5CF808185FFF2CF42
:100A9000A889B9898C9185FFEDCFCE010E94CA0447
:100AA000E7CFDF91CF9108950E94C00481110C948B
:100AB000420B0895FC0182818E3008F08E508770C1
:100AC000806480937C0080917A00806480937A00B7
:100AD00080917A0086FDFCCFA0917800809179000A
:100AE000B0E0B82B2FEF30E00E940E132FEF33E071
:100AF00040E050E00E947D17C90108958091930263
:100B000090E020919402821B910908950895E0914C
:100B1000940280919302E81730F4F0E0E75CFC4F18
:100B2000808190E008958FEF9FEF08959091940257
:100B300080919302981750F4E92FF0E0E75CFC4FA6
:100B4000208130E09F5F9093940202C02FEF3FEF2F
:100B5000C901089585ED8093BC008091BC0084FD9F
:100B6000FCCF1092900208954091CE02262F30E0E3
:100B7000240F311D21323105DCF420919002243004
:100B8000C9F4FC0180E090E0861758F43091CE0261
:100B90002191DC01A455BD4FA30FB11D2C930196EB
:100BA000F3CF8091CE02680F6093CE0280E008956B
:100BB00081E0089582E00895CF92DF92EF92FF9254
:100BC0000F931F93CF93DF937C01262F972F8A01DA
:100BD0008091F302882391F0C62FD72F6E01C40EA7
:100BE000D51ECC15DD0571F06991D701ED91FC9111
:100BF0000190F081E02DC7010995F3CF642F822F7A
:100C00000E94B405C801DF91CF911F910F91FF9011
:100C1000EF90DF90CF900895CF93DF931F92CDB7E1
:100C2000DEB769832091F3022223D1F02091910253
:100C3000203240F021E030E0FC013383228380E069
:100C400090E015C080919202E82FF0E0EC50FD4F4B
:100C5000998190838F5F809392028093910205C067
:100C600061E0CE0101960E94B40581E090E00F9012
:100C7000DF91CF910895CF92DF92EF92FF920F9381
:100C80001F93CF93DF937C016A018B01C0E0D0E01A
:100C9000CC15DD0589F0D701ED91FC910680F78137
:100CA000E02DC70109958F3FBFEF9B0729F0F801A1
:100CB00081938F012196ECCFCE01DF91CF911F91CF
:100CC0000F91FF90EF90DF90CF900895CF93DF9337
:100CD0001F92CDB7DEB7DC01ED91FC910484F58560
:100CE000E02D69830995DC01ED91FC910190F08183
:100CF000E02D69810F90DF91CF910994062E000CB1
:100D0000770BFC01778366830895CF93DF93DC0133
:100D100016962D913C9117972F3F3F4F31F5EC01DF
:100D2000E881F9810484F585E02DCE010995DC0187
:100D3000ED91FC910480F581E02D0995892B99F0C6
:100D4000E881F9810680F781E02DCE010995813295
:100D5000910534F3E881F9810284F385E02D682F51
:100D6000CE01099502C080E001C081E0DF91CF9102
:100D70000895FC018481958108950F931F93CF936B
:100D80008C01FC01C28181E08093F302C0931403C3
:100D9000109292021092910260E08EE593E00E9420
:100DA0000C0690919102913208F046C08091900219
:100DB0008111FCCF82E08093900281E080938F02CA
:100DC0008FEF809338031092370390933603A4EF8C
:100DD000B2E025E133E0F9018E2F821B891718F468
:100DE0008D918193F9CF1092350390913503CC0FFB
:100DF000C92BC093350380918E02813061F410922B
:100E00008E02809135038093BB008091BC0083FDEE
:100E1000F8CF85EC01C085EE8093BC0080919002F4
:100E20008230E1F3809138038F3F31F080913803B5
:100E3000803211F080913803109292021092910248
:100E40001092F302F8018281909190029111FCCFEF
:100E500091E09093900290938F022FEF20933803AC
:100E60001092370310923603909335039091350317
:100E7000880F892B8093350380918E02813061F435
:100E800010928E02809135038093BB008091BC004C
:100E900083FDF8CF85EC01C085EE8093BC00809186
:100EA00090028130E1F380913703811103C080917A
:100EB000370301C081E0A5E1B3E029E333E0F901A4
:100EC0009E2F921B981718F49D919193F9CF109231
:100ED000940280939302811101C0FFCF8EE593E0CD
:100EE0000E949605BC01990F880B990B0E94601611
:100EF000CF911F910F91089560E0FC0182810C94C5
:100F0000580161E0FC0182810C945801CF92DF927C
:100F1000EF92FF920F931F93CF93DF93EC01CB01DE
:100F2000BA016E837F83888799872AE939E949E185
:100F30005FE30E94BF1620E030EC45EA53E40E94D4
:100F400016136B017C0160E08A810E94580187E0E2
:100F500090E00197F1F761E08A810E9458018FE0EB
:100F600090E00197F1F760E08A810E9458018C813E
:100F70009D819927FC01E256FF4F6491FC01E657E1
:100F8000FF4FE491F0E0EE0FFF1FEA53FF4F859112
:100F9000949100E412E42FE030E0462F0E949B0F72
:100FA000611571058105910549F0DC01CB010196C0
:100FB000A11DB11DBC01CD019F7003C060E070E0B8
:100FC000CB010E945E1620E030E04AE754E40E9424
:100FD000821320E030E04AE754E40E94821320E0CC
:100FE00030E040E05FE30E94BF16A70196010E9437
:100FF000BF16DF91CF911F910F91FF90EF90DF907F
:10100000CF900895CF92DF92EF92FF92CF93DF932C
:10101000EC018E819F818F3F2FEF920759F02FEFC8
:101020003FEF3F832E83DF91CF91FF90EF90DF90D2
:10103000CF9008950E941A026B017C01A4EFCA0EA2
:10104000A1E0DA1EE11CF11CE881F9810484F58538
:10105000E02DCE010995DC01ED91FC910480F58134
:10106000E02D0995892B39F40E941A026C157D0533
:101070008E059F0548F3E881F9810484F585E02D0C
:10108000CE010995DC01ED91FC910680F781E02D00
:10109000DF91CF91FF90EF90DF90CF900994DC012A
:1010A000ED91FC910190F081E02D09948F929F9237
:1010B000AF92BF92CF92DF92EF92FF920F931F9366
:1010C000CF93DF937C018B016C0182E0C80ED11CB1
:1010D0004701E5E08E0E911CC0E0D0E0F6014191A1
:1010E0006F0150E060E070E02AE0C8010E94C20297
:1010F0005C016EE2C8010E944F088A0D9B1DC80F5B
:10110000D91FC814D90451F7F701458150E060E0B8
:1011100070E02AE0C8010E94C2028C0F9D1FDF917F
:10112000CF911F910F91FF90EF90DF90CF90BF90E4
:10113000AF909F908F9008956115710579F0FB0134
:1011400001900020E9F73197AF01461B570BDC01F6
:10115000ED91FC910280F381E02D099480E090E014
:1011600008951F920F920FB60F9211242F933F9361
:101170004F935F936F937F938F939F93AF93BF939F
:10118000EF93FF938AE693E00E94CA04FF91EF91E8
:10119000BF91AF919F918F917F916F915F914F918F
:1011A0003F912F910F900FBE0F901F9018951F9297
:1011B0000F920FB60F9211242F938F939F93EF935B
:1011C000FF93E0917A03F0917B038081E0918003AB
:1011D000F091810382FD12C09081809183038F5F23
:1011E0008F7320918403821751F0E0918303F0E024
:1011F000E659FC4F958F8093830301C08081FF9156
:10120000EF919F918F912F910F900FBE0F901F9094
:1012100018951F920F920FB60F9211242F933F93A0
:101220004F935F936F937F938F939F93AF93BF93EE
:10123000EF93FF938091B900887F803609F49CC0BA
:1012400068F5883209F45BC090F4803109F454C029
:1012500038F4882309F4F6C0883009F44DC0F6C08C
:10126000883109F44CC0803209F45DC0EFC080348D
:1012700009F468C048F4803309F455C0883309F094
:10128000E5C080933803D8C0803509F44FC0883555
:1012900009F45DC0883409F0D9C0D6C0883909F492
:1012A000C7C0A8F4883709F467C038F4883609F451
:1012B00063C0803709F460C0C9C0883809F4B8C079
:1012C000803909F45FC0803809F0C0C05BC0803B42
:1012D00009F486C038F4803A09F466C0883A09F403
:1012E0007FC0B4C0803C09F4A7C0883C09F4A4C006
:1012F000883B09F48AC0AAC08091350310C0909140
:10130000370380913603981770F5E091370381E039
:101310008E0F80933703F0E0EB5EFC4F808180936B
:10132000BB0085EC86C0809338038EC0E091370304
:1013300081E08E0F809337038091BB00F0E0EB5E7D
:10134000FC4F808390913703809136036EC0E0910B
:10135000370381E08E0F809337038091BB00F0E06C
:10136000EB5EFC4F808380918F0281116DC081E024
:1013700080938E0284EA61C083E080939002109291
:10138000F202CFCF8091F202803208F051C0E0919A
:10139000F20281E08E0F8093F2028091BB00F0E0B8
:1013A000EE52FD4F8083BDCF85EC8093BC00109240
:1013B00090028091F202803230F4E091F202F0E08B
:1013C000EE52FD4F10826091F20270E0E091D00287
:1013D000F091D10282ED92E009951092F20236C0AE
:1013E00084E0809390021092CF021092CE02E0919E
:1013F000CC02F091CD0209958091CE02811105C0F9
:1014000081E08093CE021092AC02E091CF0281E0A5
:101410008E0F8093CF02F0E0E455FD4F80818093E2
:10142000BB009091CF028091CE02981708F479CF3B
:1014300085E88093BC000AC085EC8093BC001092C4
:10144000900204C0109238030E94AA05FF91EF9108
:10145000BF91AF919F918F917F916F915F914F91CC
:101460003F912F910F900FBE0F901F9018958DE018
:1014700090E00E942C15009729F02DE0FC011192BC
:101480002A95E9F7089583B7817F83BF83B7816089
:1014900083BF83B7816083BF889583B78E7F83BF07
:1014A00083B78E7F83BF0895EF92FF920F931F93B0
:1014B000CF93DF938C017C0186E0E80EF11CC0E045
:1014C000D0E0F80184819581C817D90734F5F70178
:1014D000A191B1917F0114968D919C911597F8017E
:1014E00022813381280F391F15963C932E93149730
:1014F00012968D919C9113972817390764F01596D1
:101500001C921E921497ED91FC9111970280F38129
:10151000E02DCD0109952196D4CFDF91CF911F9178
:101520000F91FF90EF900895FC01248135812930BF
:1015300031057CF4F9013396EE0FFF1FE80FF91F18
:10154000718360832F5F3F4FFC013583248381E0EB
:10155000089580E008950F931F93CF93DF93EC01DC
:101560000C851D85D80112968D919C911397DC01F5
:10157000ED91FC910190F081E02D09950E94F4130A
:10158000F80171836083EC85FD8500811181B801CC
:10159000012E000C880B990B0E9460166093590372
:1015A00070935A0380935B0390935C03E885F985FD
:1015B00017870687DF91CF911F910F9108950F93A1
:1015C0001F93CF93DF93EC018A017B836A831D8293
:1015D0001C8288E090E00E942C15FC01138212828C
:1015E0001582148217821682118210829F838E8345
:1015F00019870887DF91CF911F910F910895EF927E
:10160000FF920F931F93CF93DF93EC010E94DF0AA9
:1016100084E090E00E942C158C01EA84FB8484E035
:1016200090E00E942C15FC0182E591E0918380837B
:10163000F382E282D8011396FC93EE9312971D87F2
:101640000C87DF91CF911F910F91FF90EF9008953C
:101650000C94DF0A0C94DF0ACF93DF93EC010E9415
:10166000DF0A81E090E00E942C159B8B8A8B81E041
:1016700090E00E942C159D8B8C8B1F8A1E8ADF9117
:10168000CF910895EF92FF920F931F93CF93DF9323
:1016900000D000D000D0CDB7DEB762E370E080E0CC
:1016A00090E00E94E0018AE693E00E94B404892B56
:1016B00039F18AE693E00E94920489831A820091AC
:1016C0001304109114040F5F1F4FB8018FE094E0D2
:1016D0000E947002882339F320910F043091100486
:1016E0008091130490911404BE016F5F7F4F820FAD
:1016F000931F0E9425151093140400931304D3CF55
:101700001A8219821C821B821E821D8260910F0424
:1017100070911004CE0101967C016115710531F0C4
:1017200040911304509114040E94970286E090E0C7
:101730000E942C158C01FC011182108213821282EE
:101740001582148240E050E067ED71E00E9497023C
:101750000E151F05C9F069817A816115710531F097
:101760004D815E81C8010E9497020EC0F801808100
:101770009181009711F00E94C115F8011182108229
:101780001582148213821282109399020093980298
:1017900089819A810E94C11581E080939A022696E0
:1017A0000FB6F894DEBF0FBECDBFDF91CF911F9172
:1017B0000F91FF90EF900895CF93DF93DC0118967F
:1017C000ED91FC91199766857785072E000C880BA3
:1017D000990B0E9460169B01AC0168ED71E081EEEF
:1017E00091E00E941301EC010E945F04CE01DF91A1
:1017F000CF910C94240F0F931F93CF93DF9300D0BE
:10180000CDB7DEB72091850430918604CE010196D4
:101810002115310519F48958944002C0821B930B9D
:101820009A83898369817A81072E000C880B990B32
:101830000E9460169B01AC016DEE71E081EF91E0BA
:101840000E9413018C010E945F04C8010F900F9049
:10185000DF91CF911F910F910C94240FAF92BF9203
:10186000CF92DF92EF92FF920F931F93CF93DF936C
:10187000EC010E94DF0A188A1F8688E090E00E942F
:101880002C157C01DC84BD84CA84AB84FC01C0823D
:10189000A182D282B3828AE090E00E942C158C0152
:1018A0008CE491E0F80191838083C282A382D48288
:1018B000B58261E08C2D0E94A40160E08D2D0E9414
:1018C000A40180E090E0A0EAB1E4F8018683978368
:1018D000A087B187F70117830683FA8EE98EDF911F
:1018E000CF911F910F91FF90EF90DF90CF90BF901D
:1018F000AF900895EF92FF920F931F93CF93DF93D2
:10190000EC010E94DF0A84E090E00E942C158C011B
:101910008A859B852EE331E0F80131832083828321
:10192000938361E00E94A401198B088B86E090E00C
:101930000E942C158C018E859F85EC84FD84F80116
:10194000F382E2829583848384E090E00E942C15E8
:1019500026E431E0FC0131832083F382E282F80146
:10196000918380831B8B0A8B81E090E09D8B8C8B15
:101970001E8ADF91CF911F910F91FF90EF900895F4
:10198000EF92FF920F931F93CF93DF93CDB7DEB704
:1019900060970FB6F894DEBF0FBECDBF8C01FC017F
:1019A00084819581009741F5008111810115110510
:1019B00051F067EF71E0C8010E949C0865ED71E08D
:1019C000C8010E949C0861E08DE00E94A40161E0D2
:1019D0008DE00E9458016AEF70E080E090E00E9484
:1019E000E00160E08DE00E9458016AEF70E080E065
:1019F00090E00E94E001EBCF28E0FC01DE011196AF
:101A000001900D922A95E1F7FC01E084F1840E9497
:101A1000C115F801F582E482828193810197938355
:101A2000828388E0FE013196DE01199601900D92C5
:101A30008A95E1F729853A854B855C856D857E859C
:101A40008F85988960960FB6F894DEBF0FBECDBF24
:101A5000DF91CF911F910F91FF90EF9008950F9319
:101A60001F93CF93DF93CDB7DEB728970FB6F894C7
:101A7000DEBF0FBECDBF8C01DC0116968D919C910F
:101A80001797FC0124813581232BE1F00E94C00CC3
:101A900029833A834B835C836D837E838F8398870E
:101AA000D8011896ED91FC91199766857785072ED8
:101AB000000C880B990B0E946016F801658B768BE1
:101AC000878B908FD8011896ED91FC9119976685B8
:101AD0007785072E000C880B990B0E946016AB01CE
:101AE000BC01F801458B568B678B708F018CF28D92
:101AF000E02D86819781DC01ED91FC910190F081D0
:101B0000E02D09959B01AC01F80186858C3479F0B4
:101B10008235C1F0863421F50084F185E02D2287DD
:101B200033874487558789E292E0D80115C0D801F0
:101B30000084F185E02D22833383448355838BE237
:101B400092E00AC0D8010084F185E02D2683378316
:101B50004087518787E692E05C969C938E935B97D3
:101B6000F801638D748D8DE292E00E9413018C0167
:101B70000E945F04C80128960FB6F894DEBF0FBE1E
:101B8000CDBFDF91CF911F910F910C94240F0F9334
:101B90001F93CF93DF93EC018E819F81FC01248101
:101BA0003581232B09F10E94C00C2A873B874C8783
:101BB0005D876E877F87888B998B0C851D8560E498
:101BC00072E0C8010E941C15892B29F481E090E085
:101BD0009F8B8E8B09C066E372E0C8010E941C15C2
:101BE000892B11F41F8A1E8A8E899F898230910564
:101BF00009F458C01CF40197A9F06AC0833091051C
:101C000009F441C0049709F063C068897989072EF7
:101C1000000C880B990B0E9460169B01AC0169E6D1
:101C200072E03DC08E819F81FC0124813581232B90
:101C300009F44EC00E94C00C2A873B874C875D8701
:101C40006E877F87888B998B0E851F856BE372E08B
:101C5000C8010E941C15892B19F084E090E010C087
:101C600066E472E0C8010E941C15892BB1F762E599
:101C700072E0C8010E941C15892B51F182E090E0AE
:101C80009F8B8E8B25C068897989072E000C880B65
:101C9000990B0E9460169B01AC016EE572E083E631
:101CA00092E00EC068897989072E000C880B990B89
:101CB0000E9460169B01AC016FE672E086E792E03D
:101CC0000E941301DF91CF911F910F910C94240F6B
:101CD000DF91CF911F910F9108950F931F93CF9391
:101CE000DF93CDB7DEB728970FB6F894DEBF0FBEEF
:101CF000CDBF8C01DC0116968D919C911797FC014C
:101D000024813581232B99F00E94C00C29833A83CA
:101D10004B835C836D837E838F83988781E02F81E3
:101D20003885232B09F480E0D80156968C93F8016E
:101D300084899589009791F0019709F58689882310
:101D4000F1F080899189DC01ED91FC910190F081A5
:101D5000E02D0995F801158A148A11C08689811130
:101D60000EC080899189DC01ED91FC910280F381A4
:101D7000E02D099581E090E0F801958B848BD801E6
:101D80005296ED91FC91539780819181DC01ED9108
:101D9000FC910190F081E02D0995D8011896ED9104
:101DA000FC91199791838083BC01990F880B990B43
:101DB0000E9460169B01AC016CE772E086E892E03D
:101DC0000E9413018C010E945F04C80128960FB67F
:101DD000F894DEBF0FBECDBFDF91CF911F910F9161
:101DE0000C94240F1F920F920FB60F9211242F9371
:101DF0003F934F935F936F937F938F939F93AF9393
:101E0000BF93EF93FF9381E08093970280919502B7
:101E100090919602009739F0DC01ED91FC910190D0
:101E2000F081E02D0995FF91EF91BF91AF919F91C6
:101E30008F917F916F915F914F913F912F910F9073
:101E40000FBE0F901F9018950F931F93CF93DF93A2
:101E5000EC012097F9F00A811B81888587FD06C077
:101E60008E819F81009711F00E94240F8885843015
:101E700031F489859A85009711F00E94C1158881F7
:101E80009981009711F00E94C115CE010E94C115E1
:101E9000E801DFCFDF91CF911F910F910895CF938C
:101EA000DF93EC016CE872E087E094E00E949C080C
:101EB0002097B9F169916623A1F1603220F0623276
:101EC00011F06C3549F56CE587E094E00E944F080D
:101ED000FE01319790819C30D1F044F49930D9F0D3
:101EE0009A30B9F0983031F762E616C0923259F064
:101EF00024F49D30F9F662E70FC09F3231F09C3533
:101F0000C9F66CE509C062E207C06FE205C066E68B
:101F100003C06EE601C064E787E094E00E944F08CA
:101F2000C9CF62E287E094E00E944F0880E090E031
:101F3000DF91CF910895CF92DF92EF92FF920F93AE
:101F40001F93E82FF92F05C001501109210931090C
:101F500061F1908196239417B9F305C001501109DE
:101F60002109310911F1908196239413F7CFC12CE7
:101F7000D12CE12CF12C0AC08FEFC81AD80AE80A3C
:101F8000F80A0C151D052E053F0579F08081862382
:101F9000841791F36C2D7D2D8E2D9F2D1F910F9108
:101FA000FF90EF90DF90CF90089560E070E080E0C8
:101FB00090E01F910F91FF90EF90DF90CF900895E8
:101FC000CF93DF9300D000D0CDB7DEB7789484B53F
:101FD000826084BD84B5816084BD85B5826085BD25
:101FE00085B5816085BD80916E00816080936E00B3
:101FF00010928100809181008260809381008091A5
:102000008100816080938100809180008160809355
:1020100080008091B10084608093B1008091B00015
:1020200081608093B00080917A00846080937A0010
:1020300080917A00826080937A0080917A0081603A
:1020400080937A0080917A00806880937A00109261
:10205000C100E0917A03F0917B0382E08083E091FC
:102060007603F09177031082E0917803F091790381
:1020700080E1808310928203E0917E03F0917F03E0
:1020800086E08083E0917C03F0917D038081806114
:102090008083E0917C03F0917D0380818860808360
:1020A000E0917C03F0917D03808180688083E091E2
:1020B0007C03F0917D0380818F7D808360E071E0FF
:1020C0008FE094E00E94700240E050E067ED71E024
:1020D0008FE094E00E949702109299021092980269
:1020E00010929A021092940210929302109292020D
:1020F000109291021092900281E080938F021092D0
:102100008E0261E082E10E94580161E083E10E9459
:1021100058018091B9008E7F8093B9008091B900F9
:102120008D7F8093B90088E48093B80085E4809324
:10213000BC0088EC90E090931E0480931D0481E025
:1021400090E00E942C15109297022BE134E030931E
:102150009602209395029093360480933504F89468
:1021600010928000109281001092850010928400DD
:102170008CEC9CE090938900809388008091810092
:1021800088608093810080918100856080938100C8
:1021900080916F00826080936F0078941092200489
:1021A00010921F0480E190E00E942C156C010AE05F
:1021B00010E0DC011F961C930E931E9788E190E0BF
:1021C0000E942C151C018EE091E0F1019183808327
:1021D000A60168EC70E0C1010E942C0B8DE190E03B
:1021E0000E942C157C0126E131E0DC0111963C9324
:1021F0002E93412C512C80EA682E81E4782EF70131
:10220000458A568A678A708E1387028789E090E034
:102210009587848786E48687812C912C98ECA92E5B
:1022200092E4B92E51968D929D92AD92BC925497A4
:10223000A60168EC70E0C70129833A830E942E0C46
:102240008DE190E00E942C158C0129813A81FC01DE
:1022500031832083458A568A678A708E8CE090E0AD
:10226000938782878BE090E09587848782E58687D5
:10227000818A928AA38AB48AA60168EC70E0C801B8
:1022800029833A830E942E0C8DE190E00E942C1548
:102290009C838B8329813A81DC0111963C932E9398
:1022A000FC01458A568A678A708E88E090E09387A1
:1022B000828787E090E0958784878CE486875196B3
:1022C0008D929D92AD92BC925497A60168EC70E0FD
:1022D000CD010E942E0C87E190E00E942C154C014C
:1022E0008EE191E0F401918380838DE090E093870B
:1022F00082878EE090E09587848788E790E09787D3
:102300008687A60160E971E0C4010E947A0C8EE024
:1023100090E00E942C1526E231E0DC0111963C93FE
:102320002E9328E430E01B963C932E931A979093BB
:102330009E0280939D02A60160E971E00E94FF0A5F
:102340008AE090E00E942C153C018EE291E0F301BE
:1023500091838083A60160E273E0C3010E94280B91
:1023600084E190E00E942C155C0186E391E0D501A8
:1023700011969C938E931D963C922E921C971B96C1
:102380009C928E921A97EB81FC811F96FC93EE93A0
:102390001E9751961C930E9350975396FC92EE9273
:1023A0005297B0929C02A0929B02A60160E971E054
:1023B000C5010E942A0BB5018BE194E00E94940AAA
:1023C000B7018BE194E00E94940AB8018BE194E09C
:1023D0000E94940A6B817C818BE194E00E94940AB4
:1023E000B4018BE194E00E94940AB3018BE194E084
:1023F0000E94940A8BE194E00E94430A0E941A0210
:1024000000919F021091A0022091A1023091A2029E
:10241000DC01CB01801B910BA20BB30B8C329140E2
:10242000A105B105A8F00E941A0260939F02709363
:10243000A0028093A1029093A20280919D029091AC
:102440009E02DC01ED91FC910280F381E02D099563
:102450000E945405CFCF80910F04909110040C94EA
:10246000C1150F931F93CF93DF93E7E3F4E0C2E925
:10247000D1E0D183C08312821382148215820AE6CE
:1024800013E0F8011382128288EE93E0A0E0B0E03E
:1024900084839583A683B78328E531E03183208345
:1024A00025EC30E03587248724EC30E03787268719
:1024B00020EC30E0318B208B21EC30E0338B228B11
:1024C00022EC30E0358B248B26EC30E0378B268BEA
:1024D000118E128E138E148EEEE5F3E013821282AB
:1024E00084839583A683B78388E691E09183808374
:1024F000EDE3F4E0D183C08312821382148215824B
:10250000E5E1F4E0D183C083128213821482158244
:10251000EFE0F4E01182108213821282158214829D
:1025200040E050E067ED71E0CF010E949702E7E0E4
:10253000F4E01382128288E791E09183808315830F
:1025400004838FEF9FEF97838683E3E4F4E0D183E6
:10255000C0831282138214821582E9E4F4E0D183ED
:10256000C0831282138214821582EFE4F4E0D183D7
:10257000C0831282138214821582E5E5F4E0D183D0
:10258000C0831282138214821582EBE5F4E0D183BA
:10259000C0831282138214821582E1E6F4E0D183B3
:1025A000C0831282138214821582E7E6F4E0D1839D
:1025B000C0831282138214821582EDE6F4E0D18387
:1025C000C0831282138214821582E3E7F4E0D18380
:1025D000C0831282138214821582E9E7F4E0D1836A
:1025E000C0831282138214821582EFE7F4E0D18354
:1025F000C08312821382148215828EE991E0909337
:102600001C0480931B04DF91CF911F910F910895BB
:10261000EE0FFF1F0590F491E02D09940E94F5172D
:10262000B7FF0895821B930B08955058BB27AA2724
:102630000E942D130C9443170E94351738F00E9406
:102640003C1720F039F49F3F19F426F40C9432170C
:102650000EF4E095E7FB0C942C17E92F0E94541719
:1026600058F3BA17620773078407950720F079F4C7
:10267000A6F50C9476170EF4E0950B2EBA2FA02D2C
:102680000B01B90190010C01CA01A0011124FF271F
:10269000591B99F0593F50F4503E68F11A16F0401A
:1026A000A22F232F342F4427585FF3CF4695379519
:1026B0002795A795F0405395C9F77EF41F16BA0BDE
:1026C000620B730B840BBAF09150A1F0FF0FBB1F8C
:1026D000661F771F881FC2F70EC0BA0F621F731FD5
:1026E000841F48F4879577956795B795F7959E3F32
:1026F00008F0B0CF9395880F08F09927EE0F9795C3
:10270000879508950E9496130C9443170E943C17D6
:1027100058F00E94351740F029F45F3F29F00C94DF
:102720002C1751110C9477170C9432170E945417E0
:1027300068F39923B1F3552391F3951B550BBB27F0
:10274000AA2762177307840738F09F5F5F4F220F35
:10275000331F441FAA1FA9F335D00E2E3AF0E0E82C
:1027600032D091505040E695001CCAF72BD0FE2F76
:1027700029D0660F771F881FBB1F2617370748070A
:10278000AB07B0E809F0BB0B802DBF01FF279358C2
:102790005F4F3AF09E3F510578F00C942C170C9443
:1027A00077175F3FE4F3983ED4F386957795679566
:1027B000B795F7959F5FC9F7880F911D96958795F7
:1027C00097F90895E1E0660F771F881FBB1F621716
:1027D00073078407BA0720F0621B730B840BBA0BD4
:1027E000EE1F88F7E09508950E94FB136894B111DD
:1027F0000C94771708950E945C1788F09F5798F003
:10280000B92F9927B751B0F0E1F0660F771F881FF5
:10281000991F1AF0BA95C9F714C0B13091F00E940F
:102820007617B1E008950C947617672F782F8827D4
:10283000B85F39F0B93FCCF3869577956795B39536
:10284000D9F73EF490958095709561957F4F8F4FA5
:102850009F4F0895A0E0B0E0E0E3F4E10C94A017EE
:10286000EC01009721F4CB010E942C15B8C0FC01AB
:10287000E60FF71F9C0122503109E217F30708F415
:10288000ACC0D9010D911C91119706171707B0F034
:102890000530110508F49FC0C801049786179707F3
:1028A00008F499C002501109061B170B01931193EC
:1028B0006D937C93CF010E94C1158DC05B01A01A5E
:1028C000B10A4C01800E911EA0918704B09188043A
:1028D00040E050E0E12CF12C109709F44AC0A81513
:1028E000B905D1F56D907C901197630182E0C80E17
:1028F000D11CCA14DB0480F1A3014A195B096A01E7
:1029000082E0C80ED11C1296BC9012971396AC911F
:10291000B5E0CB16D10440F0B282A383518340834B
:10292000D9016D937C930AC00E5F1F4FC301800FC6
:10293000911FF90191838083EB2DFA2FE114F104AB
:1029400031F0D7011396FC93EE93129744C0F093A5
:102950008804E09387043FC08D919C91119748179C
:10296000590708F4AC017D0112960D90BC91A02D81
:10297000B3CF809185049091860488159905E1F480
:1029800046175707C8F48091000190910101009704
:1029900041F48DB79EB74091040150910501841B0D
:1029A000950BE817F907C8F4F0938604E0938504C3
:1029B000F901718360830FC0CB010E942C157C014B
:1029C000009759F0A801BE010E941315CE010E9484
:1029D000C115C70104C0CE0102C080E090E0CDB7B0
:1029E000DEB7EEE00C94BC1781E090E0F8940C9414
:1029F00004180F931F93CF93DF938C01FC01019078
:102A00000020E9F7CF01801B910B0E942C15EC01EF
:102A1000009719F0B8010E942515CE01DF91CF91E2
:102A20001F910F910895FB01DC0102C001900D92EE
:102A300041505040D8F70895FB01DC018D91019081
:102A400080190110D9F3990B0895FB01DC01019065
:102A50000D920020E1F70895CF93DF938230910526
:102A600010F482E090E0E0918704F091880420E087
:102A700030E0C0E0D0E0309711F14081518148173B
:102A80005907C0F04817590761F482819381209754
:102A900019F09B838A832BC09093880480938704CA
:102AA00026C02115310519F04217530718F49A0171
:102AB000BE01DF01EF010280F381E02DDCCF2115A3
:102AC000310509F1281B390B2430310590F4129699
:102AD0008D919C9113976115710521F0FB019383F2
:102AE000828304C09093880480938704FD0132960A
:102AF00044C0FD01E20FF31F8193919322503109ED
:102B00002D933C933AC02091850430918604232B69
:102B100041F4209102013091030130938604209307
:102B2000850420910001309101012115310541F406
:102B30002DB73EB74091040150910501241B350B80
:102B4000E0918504F0918604E217F307A0F42E1BB0
:102B50003F0B2817390778F0AC014E5F5F4F241701
:102B6000350748F04E0F5F1F50938604409385044D
:102B70008193919302C0E0E0F0E0CF01DF91CF912B
:102B800008950F931F93CF93DF93009709F48CC0A0
:102B9000FC013297138212820091870410918804FD
:102BA0000115110581F420813181820F931F20913D
:102BB0008504309186042817390779F5F093860447
:102BC000E093850471C0D80140E050E0AE17BF0724
:102BD00050F412962D913C911397AD0121153105BA
:102BE00009F1D901F3CF9D01DA013383228360819A
:102BF0007181860F971F8217930769F4EC01288172
:102C00003981260F371F2E5F3F4F318320838A8102
:102C10009B8193838283452B29F4F0938804E0936E
:102C2000870442C01396FC93EE931297ED014991ED
:102C300059919E01240F351FE217F30771F480812B
:102C40009181840F951F029611969C938E93828199
:102C5000938113969C938E931297E0E0F0E0D80155
:102C600012968D919C911397009719F0F8018C01A1
:102C7000F6CF8D919C9198012E5F3F4F820F931F4D
:102C800020918504309186042817390769F430971C
:102C900029F4109288041092870402C013821282D1
:102CA0001093860400938504DF91CF911F910F91BB
:102CB00008950E949B1608F481E00895E89409C0E5
:102CC00097FB3EF490958095709561957F4F8F4F5F
:102CD0009F4F9923A9F0F92F96E9BB279395F69575
:102CE000879577956795B795F111F8CFFAF4BB0FF3
:102CF00011F460FF1BC06F5F7F4F8F4F9F4F16C057
:102D0000882311F096E911C0772321F09EE8872FE0
:102D1000762F05C0662371F096E8862F70E060E09C
:102D20002AF09A95660F771F881FDAF7880F969515
:102D3000879597F90895990F0008550FAA0BE0E8B9
:102D4000FEEF16161706E807F907C0F0121613066D
:102D5000E407F50798F0621B730B840B950B39F4AD
:102D60000A2661F0232B242B252B21F408950A2613
:102D700009F4A140A6958FEF811D811D08950E9441
:102D8000D2160C9443170E94351738F00E943C1756
:102D900020F0952311F00C942C170C943217112469
:102DA0000C9477170E94541770F3959FC1F3950FF9
:102DB00050E0551F629FF001729FBB27F00DB11DBF
:102DC000639FAA27F00DB11DAA1F649F6627B00D4F
:102DD000A11D661F829F2227B00DA11D621F739F38
:102DE000B00DA11D621F839FA00D611D221F749F46
:102DF0003327A00D611D231F849F600D211D822F8D
:102E0000762F6A2F11249F5750409AF0F1F08823B3
:102E10004AF0EE0FFF1FBB1F661F771F881F9150E0
:102E20005040A9F79E3F510580F00C942C170C944C
:102E300077175F3FE4F3983ED4F3869577956795CF
:102E4000B795F795E7959F5FC1F7FE2B880F911D0A
:102E50009695879597F9089597F99F6780E870E0B0
:102E600060E008959FEF80EC089500240A94161600
:102E7000170618060906089500240A941216130668
:102E8000140605060895092E0394000C11F48823F6
:102E900052F0BB0F40F4BF2B11F460FF04C06F5F12
:102EA0007F4F8F4F9F4F089557FD9058440F551FE8
:102EB00059F05F3F71F04795880F97FB991F61F0BC
:102EC0009F3F79F087950895121613061406551F33
:102ED000F2CF4695F1DF08C0161617061806991F9F
:102EE000F1CF86957105610508940895E894BB2794
:102EF00066277727CB0197F90895052E97FB1EF4D7
:102F000000940E94941757FD07D00E94D31707FC26
:102F100003D04EF40C94941750954095309521951C
:102F20003F4F4F4F5F4F08959095809570956195F5
:102F30007F4F8F4F9F4F08952F923F924F925F92F6
:102F40006F927F928F929F92AF92BF92CF92DF92B9
:102F5000EF92FF920F931F93CF93DF93CDB7DEB71E
:102F6000CA1BDB0B0FB6F894DEBF0FBECDBF0994B2
:102F70002A88398848885F846E847D848C849B8409
:102F8000AA84B984C884DF80EE80FD800C811B8117
:102F9000AA81B981CE0FD11D0FB6F894DEBF0FBE46
:102FA000CDBFED010895A1E21A2EAA1BBB1BFD01A6
:102FB0000DC0AA1FBB1FEE1FFF1FA217B307E40718
:102FC000F50720F0A21BB30BE40BF50B661F771F70
:102FD000881F991F1A9469F7609570958095909550
:102FE0009B01AC01BD01CF010895A29FB001B39F29
:102FF000C001A39F700D811D1124911DB29F700D02
:10300000811D1124911D089510E0C9E6D0E004C08F
:10301000FE010E9408132196CA36D107C9F7F89419
:02302000FFCFE0
:1030220000008904800001000000000000002C0B59
:10303200C70D000000002E0C2F0D000000007A0CBE
:103042006D0E00000000FF0AAB0A00000000280B12
:10305200DC0B000000002A0BFB0B000000008107C4
:103062007C07000000005A050000000086070000EF
:103072000000BD0600000000EB046704B4049204E3
:10308200A6043205000000000C06DC057E0596054C
:1030920087058605000000006606670485060208AB
:1030A2003B067E06B906000000001101670400001D
:1030B2000000560800000000110100000000540A40
:1030C200940A430A52415350424552525900434FC7
:1030D2004E54455854005459504500434F4E5445A0
:1030E2004E54006E756C6C00747275650066616C8E
:1030F2007365002D000D0A004E455756414C55454B
:103102000054454D50455241545552450052414D8F
:103112000053544154450051554555453A20636189
:103122006E277420706F70206974656D2066726FEF
:103132006D2071756575653A2071756575652069D3
:103142007320656D7074792E0046004C004449531B
:1031520054414E43450053414645004C4546545F59
:10316200414C41524D0052494748545F414C4152F3
:103172004D0046524F4E545F414C41524D004C451A
:10318200465400535445455200524947485400475B
:10319200464F524345004252414B4500494E544529
:0E31A2004E53495459004C49474854002200EE
:00000001FF
